:100000000C943E000C945B000C945B000C945B0021
:100010000C945B000C945B000C945B000C945B00F4
:100020000C945B000C945B000C945B000C945B00E4
:100030000C945B000C945B000C945B000C945B00D4
:100040000C945B000C945B000C945B000C945B00C4
:100050000C945B000C945B000C945B000C945B00B4
:100060000C945B000C945B000C945B000C945B00A4
:100070000C945B000C945B000C945B0011241FBE7D
:10008000CFEFD8E0DEBFCDBF11E0A0E0B1E0E8E304
:10009000F3E002C005900D92A430B107D9F721E03A
:1000A000A4E0B1E001C01D92A434B207E1F70E94C0
:1000B000F4000C949A010C940000AF92BF92DF926E
:1000C000EF92FF920F931F93CF93DF937C0188B140
:1000D00001E010E0062E01C0000F0A94EAF7902F0D
:1000E0009095892388B985E08A95F1F70000C701CA
:1000F0008D7FE701CC0FDD1FCC0FDD1F892B19F49D
:10010000C60FD71F03C0C61BD70B2396DC2E9CE35C
:10011000D90E80B190E00E2C02C0959587950A9477
:10012000E2F780FD24C0FE01EC5FFE4F5F0180819D
:1001300081111DC0FE01EE0FFF1FEC0FFD1FEC5ED5
:10014000FE4F84E6828360E170E084E191E00E94EA
:100150004F0181E0F5018083809103010E947701C6
:100160008D2D0E947701809101010E94770180B15D
:1001700090E002C095958795EA94E2F780FF23C04E
:10018000CE018C5F9E4F7C01FC0180818823D9F0D9
:10019000BE01660F771FC60FD71FCC5EDE4F1A82D7
:1001A00060E170E084E191E00E944F01F70110826C
:1001B000809102010E9477018D2D0E94770180912C
:1001C00001010E94770188B1082B08B9F5E3FA957F
:1001D000F1F70000DF91CF911F910F91FF90EF9009
:1001E000DF90BF90AF90089522982A9A81B1807FC6
:1001F00081B982B18F6082B987B18F6087B988B1C8
:100200008F6088B90E946301809100010E9477018C
:1002100081E00E94770100E010E0C0E0D0E0BE0184
:10022000C8010E945D002196C430D105C1F70F5F5F
:100230001F4F0430110589F7E7CF24B1242B24B9CF
:1002400025B1342F3095232335B1432B3FB7F89494
:10025000FC01680F791FE617F70789F0819198E094
:1002600045B9000000C087FF25B9880F000000C015
:1002700000C000C025B900C09A9591F7ECCF3FBFF0
:1002800008959B01220F331F620F731F0E941D01EF
:1002900087EC90E00197F1F700C00000089540E876
:1002A0000C944101660F771F660F771F40E80E948C
:1002B0001D0187EC90E00197F1F700C00000089560
:1002C00040E80C941D011092C5008CE08093C4009E
:1002D00088E18093C100E2ECF0E08081877F808339
:1002E0008081846080838081806280830895909182
:1002F000C00095FFFCCF8093C60008958091C00098
:1003000087FFFCCF8091C6000895CF93DF93EC0167
:100310008991882319F00E947701FACFDF91CF915C
:1003200008959091C00095FFFCCF8093C60080E0B7
:0803300090E00895F894FFCF5E
:04033800C0408090B1
:00000001FF
