:100000000C943E000C9450000C9450000C94500042
:100010000C9450000C9403010C9450000C9450006C
:100020000C9450000C9450000C9450000C94500010
:100030000C9450000C9424010C9450000C9450002B
:100040000C9450000C9450000C9450000C945000F0
:100050000C9450000C9450000C9450000C945000E0
:100060000C9450000C9450000C9450000C945000D0
:100070000C9450000C9450000C94500011241FBE9E
:10008000CFEFD8E0DEBFCDBF22E0A0E0B1E001C0FD
:100090001D92A237B207E1F70E940F020C94B6023C
:1000A0000C94000022982A9AE8E6F0E080818260B1
:1000B0008083ECE6F0E0808184608083579A5F98CB
:1000C00081B1807F81B982B18F6082B987B18F6041
:1000D00087B988B18F6088B9089589E09DE39093CE
:1000E00089008093880082E080936F008BE080938A
:1000F00081000895782F842F0895862B0E94930203
:100100008CE30E94930280E40C94930290E09C01A3
:10011000220F331F820F931FFC01EF5BFE4FDC01A8
:10012000AF5FBE4F8D919D91AC9180839183A283EF
:1001300060E170E081E491E00C946B0290E0FC01DE
:10014000EE0FFF1F8E0F9F1FFC01EF5BFE4F108213
:100150001182128260E170E081E491E00C946B0204
:100160009B01482FE1E4F1E0A1E3B1E080910001BF
:10017000811104C08C91882319F005C0813019F4D5
:100180002083318342833396119681E0E137F8076B
:1001900069F760E170E081E491E00C946B029CEF00
:1001A000980F943010F49BE003C08C3018F09BE162
:1001B000981B892F0C948600CF93DF938091710157
:1001C000811104C060E070E00E94B000C0E0D0E0A7
:1001D00080917101FE0190E1899FE00DF11D1124D4
:1001E000EE58FE4F8081882339F06C2F80E90E9401
:1001F0007D008C2F0E94CF002196C031D10541F7A0
:10020000DF91CF9108951F920F920FB60F92112494
:100210008F939F931A9911C08091000190E00196ED
:100220008170992780930001813011F45F9A01C099
:100230005F9885E38A95F1F700009F918F910F9069
:100240000FBE0F901F9018951F920F920FB60F922E
:1002500011242F933F934F935F936F937F938F93CB
:100260009F93AF93BF93EF93FF93809171018F5F43
:100270008F70809371010E94DC00809100018111D8
:1002800027C0A1E3B1E0E1E4F1E08D91811115C057
:100290008181833010F4118202C082508183808179
:1002A000833010F4108202C08250808382818330B8
:1002B00010F4128202C082508283339681E0E137CB
:1002C000F80719F760E170E081E491E00E946B02A9
:1002D000FF91EF91BF91AF919F918F917F916F911E
:1002E0005F914F913F912F910F900FBE0F901F90F4
:1002F0001895CF93282F2D7F982F990F990FC92FDD
:10030000211102C0C60F02C0C61BCD5F690F20B10C
:1003100030E0082E02C0359527950A94E2F720FDBB
:100320001FC0EC2FF0E0EF5CFE4F9081911118C0E0
:1003300081E0808390910001992359F0E09171014F
:1003400040E1E49FF0011124EE58FE4FE60FF11D4D
:10035000808380E90E947D008C2F0E9486001CC053
:1003600020B130E0A90102C0559547958A95E2F782
:1003700040FF12C0EC2FF0E0EF5CFE4F808188233D
:1003800059F0108280910001811106C080E80E941E
:100390007D008C2F0E949E0055E35A95F1F70000D6
:1003A000CF910895E1E0F1E08DE091E0DF012FE0F1
:1003B0002C9311961C92119720E512962C9312976C
:1003C00013968A179B0799F7A1E0B1E024E11C96E8
:1003D0002C931C9720E51D962C931D971E961C921E
:1003E0001E9713968A179B0789F7A1E0B1E026E4D0
:1003F00058962C93589759962C9359975A961C9225
:100400005A9713968A179B0791F720E524A315A204
:1004100022E026A333968E179F07B9F708950E940E
:10042000D2010E9452000E947F0278940E946D00C7
:1004300000E010E0E02E88B1C1E0D0E0002E01C065
:10044000CC0F0A94EAF79C2F9095892388B9F12C58
:100450006E2D8F2D0E947901F39484E0F812F8CF6D
:1004600088B1C82BC8B90F5F1F4F0430110511F7B1
:10047000DFCF24B1242B24B925B1342F3095232389
:1004800035B1432B3FB7F894FC01680F791FE6178D
:10049000F70789F0819198E045B9000000C087FF17
:1004A00025B9880F000000C000C000C025B900C0F9
:1004B0009A9591F7ECCF3FBF08959B01220F331F10
:1004C000620F731F0E94390287EC90E00197F1F7E9
:1004D00000C00000089540E80C945D02660F771F8D
:1004E000660F771F40E80E94390287EC90E0019781
:1004F000F1F700C00000089540E80C943902109212
:10050000C50088E08093C40088E18093C100E2ECDC
:10051000F0E08081877F8083808184608083808118
:100520008062808308959091C00095FFFCCF8093F6
:10053000C60008958091C00087FFFCCF8091C6005F
:100540000895CF93DF93EC018991882319F00E94DD
:100550009302FACFDF91CF9108959091C00095FF5B
:10056000FCCF8093C60080E090E00895F894FFCF20
:00000001FF
